{
  "contractName": "FantasyIslands",
  "abi": [
    {
      "inputs": [],
      "stateMutability": "nonpayable",
      "type": "constructor"
    },
    {
      "anonymous": false,
      "inputs": [
        {
          "indexed": true,
          "internalType": "address",
          "name": "owner",
          "type": "address"
        },
        {
          "indexed": true,
          "internalType": "address",
          "name": "approved",
          "type": "address"
        },
        {
          "indexed": true,
          "internalType": "uint256",
          "name": "tokenId",
          "type": "uint256"
        }
      ],
      "name": "Approval",
      "type": "event"
    },
    {
      "anonymous": false,
      "inputs": [
        {
          "indexed": true,
          "internalType": "address",
          "name": "owner",
          "type": "address"
        },
        {
          "indexed": true,
          "internalType": "address",
          "name": "operator",
          "type": "address"
        },
        {
          "indexed": false,
          "internalType": "bool",
          "name": "approved",
          "type": "bool"
        }
      ],
      "name": "ApprovalForAll",
      "type": "event"
    },
    {
      "anonymous": false,
      "inputs": [
        {
          "indexed": true,
          "internalType": "address",
          "name": "previousOwner",
          "type": "address"
        },
        {
          "indexed": true,
          "internalType": "address",
          "name": "newOwner",
          "type": "address"
        }
      ],
      "name": "OwnershipTransferred",
      "type": "event"
    },
    {
      "anonymous": false,
      "inputs": [
        {
          "indexed": true,
          "internalType": "address",
          "name": "from",
          "type": "address"
        },
        {
          "indexed": true,
          "internalType": "address",
          "name": "to",
          "type": "address"
        },
        {
          "indexed": true,
          "internalType": "uint256",
          "name": "tokenId",
          "type": "uint256"
        }
      ],
      "name": "Transfer",
      "type": "event"
    },
    {
      "inputs": [],
      "name": "MAX_ISLANDS",
      "outputs": [
        {
          "internalType": "uint256",
          "name": "",
          "type": "uint256"
        }
      ],
      "stateMutability": "view",
      "type": "function",
      "constant": true
    },
    {
      "inputs": [],
      "name": "_owner",
      "outputs": [
        {
          "internalType": "address payable",
          "name": "",
          "type": "address"
        }
      ],
      "stateMutability": "view",
      "type": "function",
      "constant": true
    },
    {
      "inputs": [
        {
          "internalType": "address",
          "name": "to",
          "type": "address"
        },
        {
          "internalType": "uint256",
          "name": "tokenId",
          "type": "uint256"
        }
      ],
      "name": "approve",
      "outputs": [],
      "stateMutability": "nonpayable",
      "type": "function"
    },
    {
      "inputs": [
        {
          "internalType": "address",
          "name": "owner",
          "type": "address"
        }
      ],
      "name": "balanceOf",
      "outputs": [
        {
          "internalType": "uint256",
          "name": "",
          "type": "uint256"
        }
      ],
      "stateMutability": "view",
      "type": "function",
      "constant": true
    },
    {
      "inputs": [
        {
          "internalType": "uint256",
          "name": "",
          "type": "uint256"
        }
      ],
      "name": "certificates",
      "outputs": [
        {
          "internalType": "uint256",
          "name": "",
          "type": "uint256"
        }
      ],
      "stateMutability": "view",
      "type": "function",
      "constant": true
    },
    {
      "inputs": [
        {
          "internalType": "uint256",
          "name": "tokenId",
          "type": "uint256"
        }
      ],
      "name": "getApproved",
      "outputs": [
        {
          "internalType": "address",
          "name": "",
          "type": "address"
        }
      ],
      "stateMutability": "view",
      "type": "function",
      "constant": true
    },
    {
      "inputs": [
        {
          "internalType": "address",
          "name": "owner",
          "type": "address"
        },
        {
          "internalType": "address",
          "name": "operator",
          "type": "address"
        }
      ],
      "name": "isApprovedForAll",
      "outputs": [
        {
          "internalType": "bool",
          "name": "",
          "type": "bool"
        }
      ],
      "stateMutability": "view",
      "type": "function",
      "constant": true
    },
    {
      "inputs": [],
      "name": "name",
      "outputs": [
        {
          "internalType": "string",
          "name": "",
          "type": "string"
        }
      ],
      "stateMutability": "view",
      "type": "function",
      "constant": true
    },
    {
      "inputs": [],
      "name": "owner",
      "outputs": [
        {
          "internalType": "address",
          "name": "",
          "type": "address"
        }
      ],
      "stateMutability": "view",
      "type": "function",
      "constant": true
    },
    {
      "inputs": [
        {
          "internalType": "uint256",
          "name": "tokenId",
          "type": "uint256"
        }
      ],
      "name": "ownerOf",
      "outputs": [
        {
          "internalType": "address",
          "name": "",
          "type": "address"
        }
      ],
      "stateMutability": "view",
      "type": "function",
      "constant": true
    },
    {
      "inputs": [],
      "name": "renounceOwnership",
      "outputs": [],
      "stateMutability": "nonpayable",
      "type": "function"
    },
    {
      "inputs": [
        {
          "internalType": "address",
          "name": "from",
          "type": "address"
        },
        {
          "internalType": "address",
          "name": "to",
          "type": "address"
        },
        {
          "internalType": "uint256",
          "name": "tokenId",
          "type": "uint256"
        }
      ],
      "name": "safeTransferFrom",
      "outputs": [],
      "stateMutability": "nonpayable",
      "type": "function"
    },
    {
      "inputs": [
        {
          "internalType": "address",
          "name": "from",
          "type": "address"
        },
        {
          "internalType": "address",
          "name": "to",
          "type": "address"
        },
        {
          "internalType": "uint256",
          "name": "tokenId",
          "type": "uint256"
        },
        {
          "internalType": "bytes",
          "name": "_data",
          "type": "bytes"
        }
      ],
      "name": "safeTransferFrom",
      "outputs": [],
      "stateMutability": "nonpayable",
      "type": "function"
    },
    {
      "inputs": [],
      "name": "saleActive",
      "outputs": [
        {
          "internalType": "bool",
          "name": "",
          "type": "bool"
        }
      ],
      "stateMutability": "view",
      "type": "function",
      "constant": true
    },
    {
      "inputs": [
        {
          "internalType": "address",
          "name": "operator",
          "type": "address"
        },
        {
          "internalType": "bool",
          "name": "approved",
          "type": "bool"
        }
      ],
      "name": "setApprovalForAll",
      "outputs": [],
      "stateMutability": "nonpayable",
      "type": "function"
    },
    {
      "inputs": [
        {
          "internalType": "bytes4",
          "name": "interfaceId",
          "type": "bytes4"
        }
      ],
      "name": "supportsInterface",
      "outputs": [
        {
          "internalType": "bool",
          "name": "",
          "type": "bool"
        }
      ],
      "stateMutability": "view",
      "type": "function",
      "constant": true
    },
    {
      "inputs": [],
      "name": "symbol",
      "outputs": [
        {
          "internalType": "string",
          "name": "",
          "type": "string"
        }
      ],
      "stateMutability": "view",
      "type": "function",
      "constant": true
    },
    {
      "inputs": [
        {
          "internalType": "uint256",
          "name": "index",
          "type": "uint256"
        }
      ],
      "name": "tokenByIndex",
      "outputs": [
        {
          "internalType": "uint256",
          "name": "",
          "type": "uint256"
        }
      ],
      "stateMutability": "view",
      "type": "function",
      "constant": true
    },
    {
      "inputs": [
        {
          "internalType": "address",
          "name": "owner",
          "type": "address"
        },
        {
          "internalType": "uint256",
          "name": "index",
          "type": "uint256"
        }
      ],
      "name": "tokenOfOwnerByIndex",
      "outputs": [
        {
          "internalType": "uint256",
          "name": "",
          "type": "uint256"
        }
      ],
      "stateMutability": "view",
      "type": "function",
      "constant": true
    },
    {
      "inputs": [
        {
          "internalType": "uint256",
          "name": "tokenId",
          "type": "uint256"
        }
      ],
      "name": "tokenURI",
      "outputs": [
        {
          "internalType": "string",
          "name": "",
          "type": "string"
        }
      ],
      "stateMutability": "view",
      "type": "function",
      "constant": true
    },
    {
      "inputs": [],
      "name": "totalSupply",
      "outputs": [
        {
          "internalType": "uint256",
          "name": "",
          "type": "uint256"
        }
      ],
      "stateMutability": "view",
      "type": "function",
      "constant": true
    },
    {
      "inputs": [
        {
          "internalType": "address",
          "name": "from",
          "type": "address"
        },
        {
          "internalType": "address",
          "name": "to",
          "type": "address"
        },
        {
          "internalType": "uint256",
          "name": "tokenId",
          "type": "uint256"
        }
      ],
      "name": "transferFrom",
      "outputs": [],
      "stateMutability": "nonpayable",
      "type": "function"
    },
    {
      "inputs": [
        {
          "internalType": "address",
          "name": "newOwner",
          "type": "address"
        }
      ],
      "name": "transferOwnership",
      "outputs": [],
      "stateMutability": "nonpayable",
      "type": "function"
    },
    {
      "inputs": [
        {
          "internalType": "bool",
          "name": "_status",
          "type": "bool"
        }
      ],
      "name": "changeSaleStatus",
      "outputs": [],
      "stateMutability": "nonpayable",
      "type": "function"
    },
    {
      "inputs": [
        {
          "internalType": "address",
          "name": "newOwner",
          "type": "address"
        }
      ],
      "name": "changeContractOwner",
      "outputs": [],
      "stateMutability": "nonpayable",
      "type": "function"
    },
    {
      "inputs": [],
      "name": "mintCertificate",
      "outputs": [
        {
          "internalType": "uint256",
          "name": "",
          "type": "uint256"
        }
      ],
      "stateMutability": "payable",
      "type": "function",
      "payable": true
    }
  ],
  "bytecode": "0x60806040526064600d556000600e60006101000a81548160ff0219169083151502179055503480156200003157600080fd5b506040518060400160405280602081526020017f52657075626c6963205265616c6d27732046616e746173792049736c616e64738152506040518060400160405280600481526020017f52524649000000000000000000000000000000000000000000000000000000008152508160009080519060200190620000b692919062000207565b508060019080519060200190620000cf92919062000207565b505050620000f2620000e66200013960201b60201c565b6200014160201b60201c565b33600c60006101000a81548173ffffffffffffffffffffffffffffffffffffffff021916908373ffffffffffffffffffffffffffffffffffffffff1602179055506200031c565b600033905090565b6000600a60009054906101000a900473ffffffffffffffffffffffffffffffffffffffff16905081600a60006101000a81548173ffffffffffffffffffffffffffffffffffffffff021916908373ffffffffffffffffffffffffffffffffffffffff1602179055508173ffffffffffffffffffffffffffffffffffffffff168173ffffffffffffffffffffffffffffffffffffffff167f8be0079c531659141344cd1fd0a4f28419497f9722a3daafe3b4186f6b6457e060405160405180910390a35050565b8280546200021590620002b7565b90600052602060002090601f01602090048101928262000239576000855562000285565b82601f106200025457805160ff191683800117855562000285565b8280016001018555821562000285579182015b828111156200028457825182559160200191906001019062000267565b5b50905062000294919062000298565b5090565b5b80821115620002b357600081600090555060010162000299565b5090565b60006002820490506001821680620002d057607f821691505b60208210811415620002e757620002e6620002ed565b5b50919050565b7f4e487b7100000000000000000000000000000000000000000000000000000000600052602260045260246000fd5b613905806200032c6000396000f3fe6080604052600436106101815760003560e01c806368428a1b116100d1578063a70c1dde1161008a578063c87b56dd11610064578063c87b56dd14610594578063dd014437146105d1578063e985e9c5146105ef578063f2fde38b1461062c57610181565b8063a70c1dde14610517578063b2bdfa7b14610540578063b88d4fde1461056b57610181565b806368428a1b1461041957806370a0823114610444578063715018a6146104815780638da5cb5b1461049857806395d89b41146104c3578063a22cb465146104ee57610181565b80632f745c591161013e5780634f6ccce7116101185780634f6ccce71461033757806358134231146103745780636352211e1461039f578063663b3e22146103dc57610181565b80632f745c59146102a85780633ead67b5146102e557806342842e0e1461030e57610181565b806301ffc9a71461018657806306fdde03146101c3578063081812fc146101ee578063095ea7b31461022b57806318160ddd1461025457806323b872dd1461027f575b600080fd5b34801561019257600080fd5b506101ad60048036038101906101a891906126e7565b610655565b6040516101ba9190612bd2565b60405180910390f35b3480156101cf57600080fd5b506101d86106cf565b6040516101e59190612bed565b60405180910390f35b3480156101fa57600080fd5b5061021560048036038101906102109190612741565b610761565b6040516102229190612b50565b60405180910390f35b34801561023757600080fd5b50610252600480360381019061024d919061267a565b6107e6565b005b34801561026057600080fd5b506102696108fe565b6040516102769190612eaf565b60405180910390f35b34801561028b57600080fd5b506102a660048036038101906102a19190612564565b61090b565b005b3480156102b457600080fd5b506102cf60048036038101906102ca919061267a565b61096b565b6040516102dc9190612eaf565b60405180910390f35b3480156102f157600080fd5b5061030c600480360381019061030791906124f7565b610a10565b005b34801561031a57600080fd5b5061033560048036038101906103309190612564565b610a1c565b005b34801561034357600080fd5b5061035e60048036038101906103599190612741565b610a3c565b60405161036b9190612eaf565b60405180910390f35b34801561038057600080fd5b50610389610aad565b6040516103969190612eaf565b60405180910390f35b3480156103ab57600080fd5b506103c660048036038101906103c19190612741565b610ab3565b6040516103d39190612b50565b60405180910390f35b3480156103e857600080fd5b5061040360048036038101906103fe9190612741565b610b65565b6040516104109190612eaf565b60405180910390f35b34801561042557600080fd5b5061042e610b89565b60405161043b9190612bd2565b60405180910390f35b34801561045057600080fd5b5061046b600480360381019061046691906124f7565b610b9c565b6040516104789190612eaf565b60405180910390f35b34801561048d57600080fd5b50610496610c54565b005b3480156104a457600080fd5b506104ad610cdc565b6040516104ba9190612b50565b60405180910390f35b3480156104cf57600080fd5b506104d8610d06565b6040516104e59190612bed565b60405180910390f35b3480156104fa57600080fd5b506105156004803603810190610510919061263a565b610d98565b005b34801561052357600080fd5b5061053e600480360381019061053991906126ba565b610f19565b005b34801561054c57600080fd5b50610555610fb2565b6040516105629190612b6b565b60405180910390f35b34801561057757600080fd5b50610592600480360381019061058d91906125b7565b610fd8565b005b3480156105a057600080fd5b506105bb60048036038101906105b69190612741565b61103a565b6040516105c89190612bed565b60405180910390f35b6105d96110e1565b6040516105e69190612eaf565b60405180910390f35b3480156105fb57600080fd5b5061061660048036038101906106119190612524565b61128a565b6040516106239190612bd2565b60405180910390f35b34801561063857600080fd5b50610653600480360381019061064e91906124f7565b61131e565b005b60007f780e9d63000000000000000000000000000000000000000000000000000000007bffffffffffffffffffffffffffffffffffffffffffffffffffffffff1916827bffffffffffffffffffffffffffffffffffffffffffffffffffffffff191614806106c857506106c782611416565b5b9050919050565b6060600080546106de906130e6565b80601f016020809104026020016040519081016040528092919081815260200182805461070a906130e6565b80156107575780601f1061072c57610100808354040283529160200191610757565b820191906000526020600020905b81548152906001019060200180831161073a57829003601f168201915b5050505050905090565b600061076c826114f8565b6107ab576040517f08c379a00000000000000000000000000000000000000000000000000000000081526004016107a290612daf565b60405180910390fd5b6004600083815260200190815260200160002060009054906101000a900473ffffffffffffffffffffffffffffffffffffffff169050919050565b60006107f182610ab3565b90508073ffffffffffffffffffffffffffffffffffffffff168373ffffffffffffffffffffffffffffffffffffffff161415610862576040517f08c379a000000000000000000000000000000000000000000000000000000000815260040161085990612e2f565b60405180910390fd5b8073ffffffffffffffffffffffffffffffffffffffff16610881611564565b73ffffffffffffffffffffffffffffffffffffffff1614806108b057506108af816108aa611564565b61128a565b5b6108ef576040517f08c379a00000000000000000000000000000000000000000000000000000000081526004016108e690612d0f565b60405180910390fd5b6108f9838361156c565b505050565b6000600880549050905090565b61091c610916611564565b82611625565b61095b576040517f08c379a000000000000000000000000000000000000000000000000000000000815260040161095290612e6f565b60405180910390fd5b610966838383611703565b505050565b600061097683610b9c565b82106109b7576040517f08c379a00000000000000000000000000000000000000000000000000000000081526004016109ae90612c0f565b60405180910390fd5b600660008473ffffffffffffffffffffffffffffffffffffffff1673ffffffffffffffffffffffffffffffffffffffff168152602001908152602001600020600083815260200190815260200160002054905092915050565b610a198161131e565b50565b610a3783838360405180602001604052806000815250610fd8565b505050565b6000610a466108fe565b8210610a87576040517f08c379a0000000000000000000000000000000000000000000000000000000008152600401610a7e90612e8f565b60405180910390fd5b60088281548110610a9b57610a9a61327f565b5b90600052602060002001549050919050565b600d5481565b6000806002600084815260200190815260200160002060009054906101000a900473ffffffffffffffffffffffffffffffffffffffff169050600073ffffffffffffffffffffffffffffffffffffffff168173ffffffffffffffffffffffffffffffffffffffff161415610b5c576040517f08c379a0000000000000000000000000000000000000000000000000000000008152600401610b5390612d6f565b60405180910390fd5b80915050919050565b600f8181548110610b7557600080fd5b906000526020600020016000915090505481565b600e60009054906101000a900460ff1681565b60008073ffffffffffffffffffffffffffffffffffffffff168273ffffffffffffffffffffffffffffffffffffffff161415610c0d576040517f08c379a0000000000000000000000000000000000000000000000000000000008152600401610c0490612d4f565b60405180910390fd5b600360008373ffffffffffffffffffffffffffffffffffffffff1673ffffffffffffffffffffffffffffffffffffffff168152602001908152602001600020549050919050565b610c5c611564565b73ffffffffffffffffffffffffffffffffffffffff16610c7a610cdc565b73ffffffffffffffffffffffffffffffffffffffff1614610cd0576040517f08c379a0000000000000000000000000000000000000000000000000000000008152600401610cc790612dcf565b60405180910390fd5b610cda600061195f565b565b6000600a60009054906101000a900473ffffffffffffffffffffffffffffffffffffffff16905090565b606060018054610d15906130e6565b80601f0160208091040260200160405190810160405280929190818152602001828054610d41906130e6565b8015610d8e5780601f10610d6357610100808354040283529160200191610d8e565b820191906000526020600020905b815481529060010190602001808311610d7157829003601f168201915b5050505050905090565b610da0611564565b73ffffffffffffffffffffffffffffffffffffffff168273ffffffffffffffffffffffffffffffffffffffff161415610e0e576040517f08c379a0000000000000000000000000000000000000000000000000000000008152600401610e0590612caf565b60405180910390fd5b8060056000610e1b611564565b73ffffffffffffffffffffffffffffffffffffffff1673ffffffffffffffffffffffffffffffffffffffff16815260200190815260200160002060008473ffffffffffffffffffffffffffffffffffffffff1673ffffffffffffffffffffffffffffffffffffffff16815260200190815260200160002060006101000a81548160ff0219169083151502179055508173ffffffffffffffffffffffffffffffffffffffff16610ec8611564565b73ffffffffffffffffffffffffffffffffffffffff167f17307eab39ab6107e8899845ad3d59bd9653f200f220920489ca2b5937696c3183604051610f0d9190612bd2565b60405180910390a35050565b610f21611564565b73ffffffffffffffffffffffffffffffffffffffff16610f3f610cdc565b73ffffffffffffffffffffffffffffffffffffffff1614610f95576040517f08c379a0000000000000000000000000000000000000000000000000000000008152600401610f8c90612dcf565b60405180910390fd5b80600e60006101000a81548160ff02191690831515021790555050565b600c60009054906101000a900473ffffffffffffffffffffffffffffffffffffffff1681565b610fe9610fe3611564565b83611625565b611028576040517f08c379a000000000000000000000000000000000000000000000000000000000815260040161101f90612e6f565b60405180910390fd5b61103484848484611a25565b50505050565b6060611045826114f8565b611084576040517f08c379a000000000000000000000000000000000000000000000000000000000815260040161107b90612e0f565b60405180910390fd5b600061108e611a81565b905060008151116110ae57604051806020016040528060008152506110d9565b806110b884611a98565b6040516020016110c9929190612b2c565b6040516020818303038152906040525b915050919050565b600060011515600e60009054906101000a900460ff16151514611139576040517f08c379a000000000000000000000000000000000000000000000000000000000815260040161113090612e4f565b60405180910390fd5b672b93855d12ba00003414611183576040517f08c379a000000000000000000000000000000000000000000000000000000000815260040161117a90612d2f565b60405180910390fd5b600d5461118e6108fe565b11156111cf576040517f08c379a00000000000000000000000000000000000000000000000000000000081526004016111c690612ccf565b60405180910390fd5b6111d9600b611bf9565b60006111e5600b611c0f565b9050600f81908060018154018082558091505060019003906000526020600020016000909190919091505561121a3382611c1d565b600c60009054906101000a900473ffffffffffffffffffffffffffffffffffffffff1673ffffffffffffffffffffffffffffffffffffffff166108fc349081150290604051600060405180830381858888f19350505050158015611282573d6000803e3d6000fd5b508091505090565b6000600560008473ffffffffffffffffffffffffffffffffffffffff1673ffffffffffffffffffffffffffffffffffffffff16815260200190815260200160002060008373ffffffffffffffffffffffffffffffffffffffff1673ffffffffffffffffffffffffffffffffffffffff16815260200190815260200160002060009054906101000a900460ff16905092915050565b611326611564565b73ffffffffffffffffffffffffffffffffffffffff16611344610cdc565b73ffffffffffffffffffffffffffffffffffffffff161461139a576040517f08c379a000000000000000000000000000000000000000000000000000000000815260040161139190612dcf565b60405180910390fd5b600073ffffffffffffffffffffffffffffffffffffffff168173ffffffffffffffffffffffffffffffffffffffff16141561140a576040517f08c379a000000000000000000000000000000000000000000000000000000000815260040161140190612c4f565b60405180910390fd5b6114138161195f565b50565b60007f80ac58cd000000000000000000000000000000000000000000000000000000007bffffffffffffffffffffffffffffffffffffffffffffffffffffffff1916827bffffffffffffffffffffffffffffffffffffffffffffffffffffffff191614806114e157507f5b5e139f000000000000000000000000000000000000000000000000000000007bffffffffffffffffffffffffffffffffffffffffffffffffffffffff1916827bffffffffffffffffffffffffffffffffffffffffffffffffffffffff1916145b806114f157506114f082611deb565b5b9050919050565b60008073ffffffffffffffffffffffffffffffffffffffff166002600084815260200190815260200160002060009054906101000a900473ffffffffffffffffffffffffffffffffffffffff1673ffffffffffffffffffffffffffffffffffffffff1614159050919050565b600033905090565b816004600083815260200190815260200160002060006101000a81548173ffffffffffffffffffffffffffffffffffffffff021916908373ffffffffffffffffffffffffffffffffffffffff160217905550808273ffffffffffffffffffffffffffffffffffffffff166115df83610ab3565b73ffffffffffffffffffffffffffffffffffffffff167f8c5be1e5ebec7d5bd14f71427d1e84f3dd0314c0f7b2291e5b200ac8c7c3b92560405160405180910390a45050565b6000611630826114f8565b61166f576040517f08c379a000000000000000000000000000000000000000000000000000000000815260040161166690612cef565b60405180910390fd5b600061167a83610ab3565b90508073ffffffffffffffffffffffffffffffffffffffff168473ffffffffffffffffffffffffffffffffffffffff1614806116e957508373ffffffffffffffffffffffffffffffffffffffff166116d184610761565b73ffffffffffffffffffffffffffffffffffffffff16145b806116fa57506116f9818561128a565b5b91505092915050565b8273ffffffffffffffffffffffffffffffffffffffff1661172382610ab3565b73ffffffffffffffffffffffffffffffffffffffff1614611779576040517f08c379a000000000000000000000000000000000000000000000000000000000815260040161177090612def565b60405180910390fd5b600073ffffffffffffffffffffffffffffffffffffffff168273ffffffffffffffffffffffffffffffffffffffff1614156117e9576040517f08c379a00000000000000000000000000000000000000000000000000000000081526004016117e090612c8f565b60405180910390fd5b6117f4838383611e55565b6117ff60008261156c565b6001600360008573ffffffffffffffffffffffffffffffffffffffff1673ffffffffffffffffffffffffffffffffffffffff168152602001908152602001600020600082825461184f9190612fea565b925050819055506001600360008473ffffffffffffffffffffffffffffffffffffffff1673ffffffffffffffffffffffffffffffffffffffff16815260200190815260200160002060008282546118a69190612f63565b92505081905550816002600083815260200190815260200160002060006101000a81548173ffffffffffffffffffffffffffffffffffffffff021916908373ffffffffffffffffffffffffffffffffffffffff160217905550808273ffffffffffffffffffffffffffffffffffffffff168473ffffffffffffffffffffffffffffffffffffffff167fddf252ad1be2c89b69c2b068fc378daa952ba7f163c4a11628f55a4df523b3ef60405160405180910390a4505050565b6000600a60009054906101000a900473ffffffffffffffffffffffffffffffffffffffff16905081600a60006101000a81548173ffffffffffffffffffffffffffffffffffffffff021916908373ffffffffffffffffffffffffffffffffffffffff1602179055508173ffffffffffffffffffffffffffffffffffffffff168173ffffffffffffffffffffffffffffffffffffffff167f8be0079c531659141344cd1fd0a4f28419497f9722a3daafe3b4186f6b6457e060405160405180910390a35050565b611a30848484611703565b611a3c84848484611f69565b611a7b576040517f08c379a0000000000000000000000000000000000000000000000000000000008152600401611a7290612c2f565b60405180910390fd5b50505050565b606060405180602001604052806000815250905090565b60606000821415611ae0576040518060400160405280600181526020017f30000000000000000000000000000000000000000000000000000000000000008152509050611bf4565b600082905060005b60008214611b12578080611afb90613149565b915050600a82611b0b9190612fb9565b9150611ae8565b60008167ffffffffffffffff811115611b2e57611b2d6132ae565b5b6040519080825280601f01601f191660200182016040528015611b605781602001600182028036833780820191505090505b5090505b60008514611bed57600182611b799190612fea565b9150600a85611b889190613192565b6030611b949190612f63565b60f81b818381518110611baa57611ba961327f565b5b60200101907effffffffffffffffffffffffffffffffffffffffffffffffffffffffffffff1916908160001a905350600a85611be69190612fb9565b9450611b64565b8093505050505b919050565b6001816000016000828254019250508190555050565b600081600001549050919050565b600073ffffffffffffffffffffffffffffffffffffffff168273ffffffffffffffffffffffffffffffffffffffff161415611c8d576040517f08c379a0000000000000000000000000000000000000000000000000000000008152600401611c8490612d8f565b60405180910390fd5b611c96816114f8565b15611cd6576040517f08c379a0000000000000000000000000000000000000000000000000000000008152600401611ccd90612c6f565b60405180910390fd5b611ce260008383611e55565b6001600360008473ffffffffffffffffffffffffffffffffffffffff1673ffffffffffffffffffffffffffffffffffffffff1681526020019081526020016000206000828254611d329190612f63565b92505081905550816002600083815260200190815260200160002060006101000a81548173ffffffffffffffffffffffffffffffffffffffff021916908373ffffffffffffffffffffffffffffffffffffffff160217905550808273ffffffffffffffffffffffffffffffffffffffff16600073ffffffffffffffffffffffffffffffffffffffff167fddf252ad1be2c89b69c2b068fc378daa952ba7f163c4a11628f55a4df523b3ef60405160405180910390a45050565b60007f01ffc9a7000000000000000000000000000000000000000000000000000000007bffffffffffffffffffffffffffffffffffffffffffffffffffffffff1916827bffffffffffffffffffffffffffffffffffffffffffffffffffffffff1916149050919050565b611e60838383612100565b600073ffffffffffffffffffffffffffffffffffffffff168373ffffffffffffffffffffffffffffffffffffffff161415611ea357611e9e81612105565b611ee2565b8173ffffffffffffffffffffffffffffffffffffffff168373ffffffffffffffffffffffffffffffffffffffff1614611ee157611ee0838261214e565b5b5b600073ffffffffffffffffffffffffffffffffffffffff168273ffffffffffffffffffffffffffffffffffffffff161415611f2557611f20816122bb565b611f64565b8273ffffffffffffffffffffffffffffffffffffffff168273ffffffffffffffffffffffffffffffffffffffff1614611f6357611f62828261238c565b5b5b505050565b6000611f8a8473ffffffffffffffffffffffffffffffffffffffff1661240b565b156120f3578373ffffffffffffffffffffffffffffffffffffffff1663150b7a02611fb3611564565b8786866040518563ffffffff1660e01b8152600401611fd59493929190612b86565b602060405180830381600087803b158015611fef57600080fd5b505af192505050801561202057506040513d601f19601f8201168201806040525081019061201d9190612714565b60015b6120a3573d8060008114612050576040519150601f19603f3d011682016040523d82523d6000602084013e612055565b606091505b5060008151141561209b576040517f08c379a000000000000000000000000000000000000000000000000000000000815260040161209290612c2f565b60405180910390fd5b805181602001fd5b63150b7a0260e01b7bffffffffffffffffffffffffffffffffffffffffffffffffffffffff1916817bffffffffffffffffffffffffffffffffffffffffffffffffffffffff1916149150506120f8565b600190505b949350505050565b505050565b6008805490506009600083815260200190815260200160002081905550600881908060018154018082558091505060019003906000526020600020016000909190919091505550565b6000600161215b84610b9c565b6121659190612fea565b905060006007600084815260200190815260200160002054905081811461224a576000600660008673ffffffffffffffffffffffffffffffffffffffff1673ffffffffffffffffffffffffffffffffffffffff168152602001908152602001600020600084815260200190815260200160002054905080600660008773ffffffffffffffffffffffffffffffffffffffff1673ffffffffffffffffffffffffffffffffffffffff168152602001908152602001600020600084815260200190815260200160002081905550816007600083815260200190815260200160002081905550505b6007600084815260200190815260200160002060009055600660008573ffffffffffffffffffffffffffffffffffffffff1673ffffffffffffffffffffffffffffffffffffffff16815260200190815260200160002060008381526020019081526020016000206000905550505050565b600060016008805490506122cf9190612fea565b90506000600960008481526020019081526020016000205490506000600883815481106122ff576122fe61327f565b5b9060005260206000200154905080600883815481106123215761232061327f565b5b9060005260206000200181905550816009600083815260200190815260200160002081905550600960008581526020019081526020016000206000905560088054806123705761236f613250565b5b6001900381819060005260206000200160009055905550505050565b600061239783610b9c565b905081600660008573ffffffffffffffffffffffffffffffffffffffff1673ffffffffffffffffffffffffffffffffffffffff168152602001908152602001600020600083815260200190815260200160002081905550806007600084815260200190815260200160002081905550505050565b600080823b905060008111915050919050565b600061243161242c84612eef565b612eca565b90508281526020810184848401111561244d5761244c6132e2565b5b6124588482856130a4565b509392505050565b60008135905061246f81613873565b92915050565b6000813590506124848161388a565b92915050565b600081359050612499816138a1565b92915050565b6000815190506124ae816138a1565b92915050565b600082601f8301126124c9576124c86132dd565b5b81356124d984826020860161241e565b91505092915050565b6000813590506124f1816138b8565b92915050565b60006020828403121561250d5761250c6132ec565b5b600061251b84828501612460565b91505092915050565b6000806040838503121561253b5761253a6132ec565b5b600061254985828601612460565b925050602061255a85828601612460565b9150509250929050565b60008060006060848603121561257d5761257c6132ec565b5b600061258b86828701612460565b935050602061259c86828701612460565b92505060406125ad868287016124e2565b9150509250925092565b600080600080608085870312156125d1576125d06132ec565b5b60006125df87828801612460565b94505060206125f087828801612460565b9350506040612601878288016124e2565b925050606085013567ffffffffffffffff811115612622576126216132e7565b5b61262e878288016124b4565b91505092959194509250565b60008060408385031215612651576126506132ec565b5b600061265f85828601612460565b925050602061267085828601612475565b9150509250929050565b60008060408385031215612691576126906132ec565b5b600061269f85828601612460565b92505060206126b0858286016124e2565b9150509250929050565b6000602082840312156126d0576126cf6132ec565b5b60006126de84828501612475565b91505092915050565b6000602082840312156126fd576126fc6132ec565b5b600061270b8482850161248a565b91505092915050565b60006020828403121561272a576127296132ec565b5b60006127388482850161249f565b91505092915050565b600060208284031215612757576127566132ec565b5b6000612765848285016124e2565b91505092915050565b61277781613030565b82525050565b6127868161301e565b82525050565b61279581613042565b82525050565b60006127a682612f20565b6127b08185612f36565b93506127c08185602086016130b3565b6127c9816132f1565b840191505092915050565b60006127df82612f2b565b6127e98185612f47565b93506127f98185602086016130b3565b612802816132f1565b840191505092915050565b600061281882612f2b565b6128228185612f58565b93506128328185602086016130b3565b80840191505092915050565b600061284b602b83612f47565b915061285682613302565b604082019050919050565b600061286e603283612f47565b915061287982613351565b604082019050919050565b6000612891602683612f47565b915061289c826133a0565b604082019050919050565b60006128b4601c83612f47565b91506128bf826133ef565b602082019050919050565b60006128d7602483612f47565b91506128e282613418565b604082019050919050565b60006128fa601983612f47565b915061290582613467565b602082019050919050565b600061291d601e83612f47565b915061292882613490565b602082019050919050565b6000612940602c83612f47565b915061294b826134b9565b604082019050919050565b6000612963603883612f47565b915061296e82613508565b604082019050919050565b6000612986601b83612f47565b915061299182613557565b602082019050919050565b60006129a9602a83612f47565b91506129b482613580565b604082019050919050565b60006129cc602983612f47565b91506129d7826135cf565b604082019050919050565b60006129ef602083612f47565b91506129fa8261361e565b602082019050919050565b6000612a12602c83612f47565b9150612a1d82613647565b604082019050919050565b6000612a35602083612f47565b9150612a4082613696565b602082019050919050565b6000612a58602983612f47565b9150612a63826136bf565b604082019050919050565b6000612a7b602f83612f47565b9150612a868261370e565b604082019050919050565b6000612a9e602183612f47565b9150612aa98261375d565b604082019050919050565b6000612ac1601c83612f47565b9150612acc826137ac565b602082019050919050565b6000612ae4603183612f47565b9150612aef826137d5565b604082019050919050565b6000612b07602c83612f47565b9150612b1282613824565b604082019050919050565b612b268161309a565b82525050565b6000612b38828561280d565b9150612b44828461280d565b91508190509392505050565b6000602082019050612b65600083018461277d565b92915050565b6000602082019050612b80600083018461276e565b92915050565b6000608082019050612b9b600083018761277d565b612ba8602083018661277d565b612bb56040830185612b1d565b8181036060830152612bc7818461279b565b905095945050505050565b6000602082019050612be7600083018461278c565b92915050565b60006020820190508181036000830152612c0781846127d4565b905092915050565b60006020820190508181036000830152612c288161283e565b9050919050565b60006020820190508181036000830152612c4881612861565b9050919050565b60006020820190508181036000830152612c6881612884565b9050919050565b60006020820190508181036000830152612c88816128a7565b9050919050565b60006020820190508181036000830152612ca8816128ca565b9050919050565b60006020820190508181036000830152612cc8816128ed565b9050919050565b60006020820190508181036000830152612ce881612910565b9050919050565b60006020820190508181036000830152612d0881612933565b9050919050565b60006020820190508181036000830152612d2881612956565b9050919050565b60006020820190508181036000830152612d4881612979565b9050919050565b60006020820190508181036000830152612d688161299c565b9050919050565b60006020820190508181036000830152612d88816129bf565b9050919050565b60006020820190508181036000830152612da8816129e2565b9050919050565b60006020820190508181036000830152612dc881612a05565b9050919050565b60006020820190508181036000830152612de881612a28565b9050919050565b60006020820190508181036000830152612e0881612a4b565b9050919050565b60006020820190508181036000830152612e2881612a6e565b9050919050565b60006020820190508181036000830152612e4881612a91565b9050919050565b60006020820190508181036000830152612e6881612ab4565b9050919050565b60006020820190508181036000830152612e8881612ad7565b9050919050565b60006020820190508181036000830152612ea881612afa565b9050919050565b6000602082019050612ec46000830184612b1d565b92915050565b6000612ed4612ee5565b9050612ee08282613118565b919050565b6000604051905090565b600067ffffffffffffffff821115612f0a57612f096132ae565b5b612f13826132f1565b9050602081019050919050565b600081519050919050565b600081519050919050565b600082825260208201905092915050565b600082825260208201905092915050565b600081905092915050565b6000612f6e8261309a565b9150612f798361309a565b9250827fffffffffffffffffffffffffffffffffffffffffffffffffffffffffffffffff03821115612fae57612fad6131c3565b5b828201905092915050565b6000612fc48261309a565b9150612fcf8361309a565b925082612fdf57612fde6131f2565b5b828204905092915050565b6000612ff58261309a565b91506130008361309a565b925082821015613013576130126131c3565b5b828203905092915050565b60006130298261307a565b9050919050565b600061303b8261307a565b9050919050565b60008115159050919050565b60007fffffffff0000000000000000000000000000000000000000000000000000000082169050919050565b600073ffffffffffffffffffffffffffffffffffffffff82169050919050565b6000819050919050565b82818337600083830152505050565b60005b838110156130d15780820151818401526020810190506130b6565b838111156130e0576000848401525b50505050565b600060028204905060018216806130fe57607f821691505b6020821081141561311257613111613221565b5b50919050565b613121826132f1565b810181811067ffffffffffffffff821117156131405761313f6132ae565b5b80604052505050565b60006131548261309a565b91507fffffffffffffffffffffffffffffffffffffffffffffffffffffffffffffffff821415613187576131866131c3565b5b600182019050919050565b600061319d8261309a565b91506131a88361309a565b9250826131b8576131b76131f2565b5b828206905092915050565b7f4e487b7100000000000000000000000000000000000000000000000000000000600052601160045260246000fd5b7f4e487b7100000000000000000000000000000000000000000000000000000000600052601260045260246000fd5b7f4e487b7100000000000000000000000000000000000000000000000000000000600052602260045260246000fd5b7f4e487b7100000000000000000000000000000000000000000000000000000000600052603160045260246000fd5b7f4e487b7100000000000000000000000000000000000000000000000000000000600052603260045260246000fd5b7f4e487b7100000000000000000000000000000000000000000000000000000000600052604160045260246000fd5b600080fd5b600080fd5b600080fd5b600080fd5b6000601f19601f8301169050919050565b7f455243373231456e756d657261626c653a206f776e657220696e646578206f7560008201527f74206f6620626f756e6473000000000000000000000000000000000000000000602082015250565b7f4552433732313a207472616e7366657220746f206e6f6e20455243373231526560008201527f63656976657220696d706c656d656e7465720000000000000000000000000000602082015250565b7f4f776e61626c653a206e6577206f776e657220697320746865207a65726f206160008201527f6464726573730000000000000000000000000000000000000000000000000000602082015250565b7f4552433732313a20746f6b656e20616c7265616479206d696e74656400000000600082015250565b7f4552433732313a207472616e7366657220746f20746865207a65726f2061646460008201527f7265737300000000000000000000000000000000000000000000000000000000602082015250565b7f4552433732313a20617070726f766520746f2063616c6c657200000000000000600082015250565b7f416c6c2069736c616e64732061726520616c7265616479206d696e7465640000600082015250565b7f4552433732313a206f70657261746f7220717565727920666f72206e6f6e657860008201527f697374656e7420746f6b656e0000000000000000000000000000000000000000602082015250565b7f4552433732313a20617070726f76652063616c6c6572206973206e6f74206f7760008201527f6e6572206e6f7220617070726f76656420666f7220616c6c0000000000000000602082015250565b7f526571756972657320332e313420657468657220746f206d696e740000000000600082015250565b7f4552433732313a2062616c616e636520717565727920666f7220746865207a6560008201527f726f206164647265737300000000000000000000000000000000000000000000602082015250565b7f4552433732313a206f776e657220717565727920666f72206e6f6e657869737460008201527f656e7420746f6b656e0000000000000000000000000000000000000000000000602082015250565b7f4552433732313a206d696e7420746f20746865207a65726f2061646472657373600082015250565b7f4552433732313a20617070726f76656420717565727920666f72206e6f6e657860008201527f697374656e7420746f6b656e0000000000000000000000000000000000000000602082015250565b7f4f776e61626c653a2063616c6c6572206973206e6f7420746865206f776e6572600082015250565b7f4552433732313a207472616e73666572206f6620746f6b656e2074686174206960008201527f73206e6f74206f776e0000000000000000000000000000000000000000000000602082015250565b7f4552433732314d657461646174613a2055524920717565727920666f72206e6f60008201527f6e6578697374656e7420746f6b656e0000000000000000000000000000000000602082015250565b7f4552433732313a20617070726f76616c20746f2063757272656e74206f776e6560008201527f7200000000000000000000000000000000000000000000000000000000000000602082015250565b7f53616c65206973206e6f742063757272656e746c792061637469766500000000600082015250565b7f4552433732313a207472616e736665722063616c6c6572206973206e6f74206f60008201527f776e6572206e6f7220617070726f766564000000000000000000000000000000602082015250565b7f455243373231456e756d657261626c653a20676c6f62616c20696e646578206f60008201527f7574206f6620626f756e64730000000000000000000000000000000000000000602082015250565b61387c8161301e565b811461388757600080fd5b50565b61389381613042565b811461389e57600080fd5b50565b6138aa8161304e565b81146138b557600080fd5b50565b6138c18161309a565b81146138cc57600080fd5b5056fea2646970667358221220d6b4aaf953e66cdd9cbf79d53638ff43c2f5067262a31950841ab8b96e1d465864736f6c63430008060033",
  "immutableReferences": {},
  "source": "// SPDX-License-Identifier: MIT\npragma solidity ^0.8.0;\n\nimport \"@openzeppelin/contracts/token/ERC721/extensions/ERC721Enumerable.sol\";\nimport \"@openzeppelin/contracts/utils/Counters.sol\";\nimport \"@openzeppelin/contracts/access/Ownable.sol\";\n\ncontract FantasyIslands is ERC721Enumerable, Ownable {\n    using Counters for Counters.Counter;\n    Counters.Counter private numberOfIslands;\n    address payable public _owner;\n    uint public MAX_ISLANDS = 100;\n    bool public saleActive = false;\n    uint[] public certificates;\n\n    constructor() ERC721(\"Republic Realm's Fantasy Islands\", \"RRFI\") {\n        _owner = payable(msg.sender);\n    }\n\n    function changeSaleStatus(bool _status) public onlyOwner {\n        saleActive = _status;\n    }\n\n    function changeContractOwner(address newOwner) public {\n        transferOwnership(newOwner);\n    }\n\n    function mintCertificate() public payable returns (uint256) {\n        require(saleActive == true, 'Sale is not currently active');\n        require(msg.value == 3.14 ether, 'Requires 3.14 ether to mint');\n        require(totalSupply() <= MAX_ISLANDS, 'All islands are already minted');\n        numberOfIslands.increment();\n        uint256 newCertifcateID = numberOfIslands.current();\n        certificates.push(newCertifcateID);\n        _mint(msg.sender, newCertifcateID);\n        // string memory newItemIdString = Strings.toString(newCertifcateID);\n        // string memory metadata = \"/metadata.json\";\n        // string memory url = string(abi.encodePacked(newItemIdString, metadata));\n        _owner.transfer(msg.value);\n        return newCertifcateID;\n    }\n}\n",
  "sourcePath": "/Users/seanroades/Desktop/projects/fantasy-islands-v3/starter_kit/src/contracts/FantasyIslands.sol",
  "compiler": {
    "name": "solc",
    "version": "0.8.6+commit.11564f7e.Emscripten.clang"
  },
  "schemaVersion": "3.4.0",
  "updatedAt": "2021-08-03T19:00:12.724Z",
  "networkType": "ethereum",
  "devdoc": {
    "kind": "dev",
    "methods": {
      "approve(address,uint256)": {
        "details": "See {IERC721-approve}."
      },
      "balanceOf(address)": {
        "details": "See {IERC721-balanceOf}."
      },
      "getApproved(uint256)": {
        "details": "See {IERC721-getApproved}."
      },
      "isApprovedForAll(address,address)": {
        "details": "See {IERC721-isApprovedForAll}."
      },
      "name()": {
        "details": "See {IERC721Metadata-name}."
      },
      "owner()": {
        "details": "Returns the address of the current owner."
      },
      "ownerOf(uint256)": {
        "details": "See {IERC721-ownerOf}."
      },
      "renounceOwnership()": {
        "details": "Leaves the contract without owner. It will not be possible to call `onlyOwner` functions anymore. Can only be called by the current owner. NOTE: Renouncing ownership will leave the contract without an owner, thereby removing any functionality that is only available to the owner."
      },
      "safeTransferFrom(address,address,uint256)": {
        "details": "See {IERC721-safeTransferFrom}."
      },
      "safeTransferFrom(address,address,uint256,bytes)": {
        "details": "See {IERC721-safeTransferFrom}."
      },
      "setApprovalForAll(address,bool)": {
        "details": "See {IERC721-setApprovalForAll}."
      },
      "supportsInterface(bytes4)": {
        "details": "See {IERC165-supportsInterface}."
      },
      "symbol()": {
        "details": "See {IERC721Metadata-symbol}."
      },
      "tokenByIndex(uint256)": {
        "details": "See {IERC721Enumerable-tokenByIndex}."
      },
      "tokenOfOwnerByIndex(address,uint256)": {
        "details": "See {IERC721Enumerable-tokenOfOwnerByIndex}."
      },
      "tokenURI(uint256)": {
        "details": "See {IERC721Metadata-tokenURI}."
      },
      "totalSupply()": {
        "details": "See {IERC721Enumerable-totalSupply}."
      },
      "transferFrom(address,address,uint256)": {
        "details": "See {IERC721-transferFrom}."
      },
      "transferOwnership(address)": {
        "details": "Transfers ownership of the contract to a new account (`newOwner`). Can only be called by the current owner."
      }
    },
    "version": 1
  },
  "userdoc": {
    "kind": "user",
    "methods": {},
    "version": 1
  }
}