{
  "contractName": "GameItem",
  "abi": [
    {
      "inputs": [],
      "stateMutability": "nonpayable",
      "type": "constructor"
    },
    {
      "anonymous": false,
      "inputs": [
        {
          "indexed": true,
          "internalType": "address",
          "name": "owner",
          "type": "address"
        },
        {
          "indexed": true,
          "internalType": "address",
          "name": "approved",
          "type": "address"
        },
        {
          "indexed": true,
          "internalType": "uint256",
          "name": "tokenId",
          "type": "uint256"
        }
      ],
      "name": "Approval",
      "type": "event"
    },
    {
      "anonymous": false,
      "inputs": [
        {
          "indexed": true,
          "internalType": "address",
          "name": "owner",
          "type": "address"
        },
        {
          "indexed": true,
          "internalType": "address",
          "name": "operator",
          "type": "address"
        },
        {
          "indexed": false,
          "internalType": "bool",
          "name": "approved",
          "type": "bool"
        }
      ],
      "name": "ApprovalForAll",
      "type": "event"
    },
    {
      "anonymous": false,
      "inputs": [
        {
          "indexed": true,
          "internalType": "address",
          "name": "from",
          "type": "address"
        },
        {
          "indexed": true,
          "internalType": "address",
          "name": "to",
          "type": "address"
        },
        {
          "indexed": true,
          "internalType": "uint256",
          "name": "tokenId",
          "type": "uint256"
        }
      ],
      "name": "Transfer",
      "type": "event"
    },
    {
      "inputs": [
        {
          "internalType": "address",
          "name": "to",
          "type": "address"
        },
        {
          "internalType": "uint256",
          "name": "tokenId",
          "type": "uint256"
        }
      ],
      "name": "approve",
      "outputs": [],
      "stateMutability": "nonpayable",
      "type": "function"
    },
    {
      "inputs": [
        {
          "internalType": "address",
          "name": "owner",
          "type": "address"
        }
      ],
      "name": "balanceOf",
      "outputs": [
        {
          "internalType": "uint256",
          "name": "",
          "type": "uint256"
        }
      ],
      "stateMutability": "view",
      "type": "function"
    },
    {
      "inputs": [
        {
          "internalType": "uint256",
          "name": "tokenId",
          "type": "uint256"
        }
      ],
      "name": "burn",
      "outputs": [],
      "stateMutability": "nonpayable",
      "type": "function"
    },
    {
      "inputs": [
        {
          "internalType": "uint256",
          "name": "tokenId",
          "type": "uint256"
        }
      ],
      "name": "getApproved",
      "outputs": [
        {
          "internalType": "address",
          "name": "",
          "type": "address"
        }
      ],
      "stateMutability": "view",
      "type": "function"
    },
    {
      "inputs": [
        {
          "internalType": "address",
          "name": "owner",
          "type": "address"
        },
        {
          "internalType": "address",
          "name": "operator",
          "type": "address"
        }
      ],
      "name": "isApprovedForAll",
      "outputs": [
        {
          "internalType": "bool",
          "name": "",
          "type": "bool"
        }
      ],
      "stateMutability": "view",
      "type": "function"
    },
    {
      "inputs": [],
      "name": "name",
      "outputs": [
        {
          "internalType": "string",
          "name": "",
          "type": "string"
        }
      ],
      "stateMutability": "view",
      "type": "function"
    },
    {
      "inputs": [
        {
          "internalType": "uint256",
          "name": "tokenId",
          "type": "uint256"
        }
      ],
      "name": "ownerOf",
      "outputs": [
        {
          "internalType": "address",
          "name": "",
          "type": "address"
        }
      ],
      "stateMutability": "view",
      "type": "function"
    },
    {
      "inputs": [
        {
          "internalType": "address",
          "name": "from",
          "type": "address"
        },
        {
          "internalType": "address",
          "name": "to",
          "type": "address"
        },
        {
          "internalType": "uint256",
          "name": "tokenId",
          "type": "uint256"
        }
      ],
      "name": "safeTransferFrom",
      "outputs": [],
      "stateMutability": "nonpayable",
      "type": "function"
    },
    {
      "inputs": [
        {
          "internalType": "address",
          "name": "from",
          "type": "address"
        },
        {
          "internalType": "address",
          "name": "to",
          "type": "address"
        },
        {
          "internalType": "uint256",
          "name": "tokenId",
          "type": "uint256"
        },
        {
          "internalType": "bytes",
          "name": "_data",
          "type": "bytes"
        }
      ],
      "name": "safeTransferFrom",
      "outputs": [],
      "stateMutability": "nonpayable",
      "type": "function"
    },
    {
      "inputs": [
        {
          "internalType": "address",
          "name": "operator",
          "type": "address"
        },
        {
          "internalType": "bool",
          "name": "approved",
          "type": "bool"
        }
      ],
      "name": "setApprovalForAll",
      "outputs": [],
      "stateMutability": "nonpayable",
      "type": "function"
    },
    {
      "inputs": [
        {
          "internalType": "bytes4",
          "name": "interfaceId",
          "type": "bytes4"
        }
      ],
      "name": "supportsInterface",
      "outputs": [
        {
          "internalType": "bool",
          "name": "",
          "type": "bool"
        }
      ],
      "stateMutability": "view",
      "type": "function"
    },
    {
      "inputs": [],
      "name": "symbol",
      "outputs": [
        {
          "internalType": "string",
          "name": "",
          "type": "string"
        }
      ],
      "stateMutability": "view",
      "type": "function"
    },
    {
      "inputs": [
        {
          "internalType": "uint256",
          "name": "tokenId",
          "type": "uint256"
        }
      ],
      "name": "tokenURI",
      "outputs": [
        {
          "internalType": "string",
          "name": "",
          "type": "string"
        }
      ],
      "stateMutability": "view",
      "type": "function"
    },
    {
      "inputs": [
        {
          "internalType": "address",
          "name": "from",
          "type": "address"
        },
        {
          "internalType": "address",
          "name": "to",
          "type": "address"
        },
        {
          "internalType": "uint256",
          "name": "tokenId",
          "type": "uint256"
        }
      ],
      "name": "transferFrom",
      "outputs": [],
      "stateMutability": "nonpayable",
      "type": "function"
    },
    {
      "inputs": [
        {
          "internalType": "address",
          "name": "player",
          "type": "address"
        },
        {
          "internalType": "string",
          "name": "tokenURI",
          "type": "string"
        }
      ],
      "name": "awardItem",
      "outputs": [
        {
          "internalType": "uint256",
          "name": "",
          "type": "uint256"
        }
      ],
      "stateMutability": "nonpayable",
      "type": "function"
    }
  ],
  "bytecode": "0x60806040523480156200001157600080fd5b506040518060400160405280600881526020017f47616d654974656d0000000000000000000000000000000000000000000000008152506040518060400160405280600381526020017f49544d0000000000000000000000000000000000000000000000000000000000815250816000908051906020019062000096929190620000b8565b508060019080519060200190620000af929190620000b8565b505050620001cd565b828054620000c69062000168565b90600052602060002090601f016020900481019282620000ea576000855562000136565b82601f106200010557805160ff191683800117855562000136565b8280016001018555821562000136579182015b828111156200013557825182559160200191906001019062000118565b5b50905062000145919062000149565b5090565b5b80821115620001645760008160009055506001016200014a565b5090565b600060028204905060018216806200018157607f821691505b602082108114156200019857620001976200019e565b5b50919050565b7f4e487b7100000000000000000000000000000000000000000000000000000000600052602260045260246000fd5b612a3280620001dd6000396000f3fe608060405234801561001057600080fd5b50600436106100f55760003560e01c80636352211e11610097578063b88d4fde11610066578063b88d4fde14610282578063c87b56dd1461029e578063cf378343146102ce578063e985e9c5146102fe576100f5565b80636352211e146101e857806370a082311461021857806395d89b4114610248578063a22cb46514610266576100f5565b8063095ea7b3116100d3578063095ea7b31461017857806323b872dd1461019457806342842e0e146101b057806342966c68146101cc576100f5565b806301ffc9a7146100fa57806306fdde031461012a578063081812fc14610148575b600080fd5b610114600480360381019061010f9190611b22565b61032e565b6040516101219190611f11565b60405180910390f35b610132610410565b60405161013f9190611f2c565b60405180910390f35b610162600480360381019061015d9190611b7c565b6104a2565b60405161016f9190611eaa565b60405180910390f35b610192600480360381019061018d9190611ae2565b610527565b005b6101ae60048036038101906101a99190611970565b61063f565b005b6101ca60048036038101906101c59190611970565b61069f565b005b6101e660048036038101906101e19190611b7c565b6106bf565b005b61020260048036038101906101fd9190611b7c565b61071b565b60405161020f9190611eaa565b60405180910390f35b610232600480360381019061022d9190611903565b6107cd565b60405161023f919061212e565b60405180910390f35b610250610885565b60405161025d9190611f2c565b60405180910390f35b610280600480360381019061027b9190611a46565b610917565b005b61029c600480360381019061029791906119c3565b610a98565b005b6102b860048036038101906102b39190611b7c565b610afa565b6040516102c59190611f2c565b60405180910390f35b6102e860048036038101906102e39190611a86565b610ba1565b6040516102f5919061212e565b60405180910390f35b61031860048036038101906103139190611930565b610bcf565b6040516103259190611f11565b60405180910390f35b60007f80ac58cd000000000000000000000000000000000000000000000000000000007bffffffffffffffffffffffffffffffffffffffffffffffffffffffff1916827bffffffffffffffffffffffffffffffffffffffffffffffffffffffff191614806103f957507f5b5e139f000000000000000000000000000000000000000000000000000000007bffffffffffffffffffffffffffffffffffffffffffffffffffffffff1916827bffffffffffffffffffffffffffffffffffffffffffffffffffffffff1916145b80610409575061040882610c63565b5b9050919050565b60606000805461041f90612384565b80601f016020809104026020016040519081016040528092919081815260200182805461044b90612384565b80156104985780601f1061046d57610100808354040283529160200191610498565b820191906000526020600020905b81548152906001019060200180831161047b57829003601f168201915b5050505050905090565b60006104ad82610ccd565b6104ec576040517f08c379a00000000000000000000000000000000000000000000000000000000081526004016104e39061206e565b60405180910390fd5b6004600083815260200190815260200160002060009054906101000a900473ffffffffffffffffffffffffffffffffffffffff169050919050565b60006105328261071b565b90508073ffffffffffffffffffffffffffffffffffffffff168373ffffffffffffffffffffffffffffffffffffffff1614156105a3576040517f08c379a000000000000000000000000000000000000000000000000000000000815260040161059a906120ce565b60405180910390fd5b8073ffffffffffffffffffffffffffffffffffffffff166105c2610d39565b73ffffffffffffffffffffffffffffffffffffffff1614806105f157506105f0816105eb610d39565b610bcf565b5b610630576040517f08c379a000000000000000000000000000000000000000000000000000000000815260040161062790611fee565b60405180910390fd5b61063a8383610d41565b505050565b61065061064a610d39565b82610dfa565b61068f576040517f08c379a0000000000000000000000000000000000000000000000000000000008152600401610686906120ee565b60405180910390fd5b61069a838383610ed8565b505050565b6106ba83838360405180602001604052806000815250610a98565b505050565b6106d06106ca610d39565b82610dfa565b61070f576040517f08c379a00000000000000000000000000000000000000000000000000000000081526004016107069061210e565b60405180910390fd5b61071881611134565b50565b6000806002600084815260200190815260200160002060009054906101000a900473ffffffffffffffffffffffffffffffffffffffff169050600073ffffffffffffffffffffffffffffffffffffffff168173ffffffffffffffffffffffffffffffffffffffff1614156107c4576040517f08c379a00000000000000000000000000000000000000000000000000000000081526004016107bb9061202e565b60405180910390fd5b80915050919050565b60008073ffffffffffffffffffffffffffffffffffffffff168273ffffffffffffffffffffffffffffffffffffffff16141561083e576040517f08c379a00000000000000000000000000000000000000000000000000000000081526004016108359061200e565b60405180910390fd5b600360008373ffffffffffffffffffffffffffffffffffffffff1673ffffffffffffffffffffffffffffffffffffffff168152602001908152602001600020549050919050565b60606001805461089490612384565b80601f01602080910402602001604051908101604052809291908181526020018280546108c090612384565b801561090d5780601f106108e25761010080835404028352916020019161090d565b820191906000526020600020905b8154815290600101906020018083116108f057829003601f168201915b5050505050905090565b61091f610d39565b73ffffffffffffffffffffffffffffffffffffffff168273ffffffffffffffffffffffffffffffffffffffff16141561098d576040517f08c379a000000000000000000000000000000000000000000000000000000000815260040161098490611fae565b60405180910390fd5b806005600061099a610d39565b73ffffffffffffffffffffffffffffffffffffffff1673ffffffffffffffffffffffffffffffffffffffff16815260200190815260200160002060008473ffffffffffffffffffffffffffffffffffffffff1673ffffffffffffffffffffffffffffffffffffffff16815260200190815260200160002060006101000a81548160ff0219169083151502179055508173ffffffffffffffffffffffffffffffffffffffff16610a47610d39565b73ffffffffffffffffffffffffffffffffffffffff167f17307eab39ab6107e8899845ad3d59bd9653f200f220920489ca2b5937696c3183604051610a8c9190611f11565b60405180910390a35050565b610aa9610aa3610d39565b83610dfa565b610ae8576040517f08c379a0000000000000000000000000000000000000000000000000000000008152600401610adf906120ee565b60405180910390fd5b610af484848484611245565b50505050565b6060610b0582610ccd565b610b44576040517f08c379a0000000000000000000000000000000000000000000000000000000008152600401610b3b906120ae565b60405180910390fd5b6000610b4e6112a1565b90506000815111610b6e5760405180602001604052806000815250610b99565b80610b78846112b8565b604051602001610b89929190611e86565b6040516020818303038152906040525b915050919050565b6000610bad6006611419565b6000610bb9600661142f565b9050610bc5848261143d565b8091505092915050565b6000600560008473ffffffffffffffffffffffffffffffffffffffff1673ffffffffffffffffffffffffffffffffffffffff16815260200190815260200160002060008373ffffffffffffffffffffffffffffffffffffffff1673ffffffffffffffffffffffffffffffffffffffff16815260200190815260200160002060009054906101000a900460ff16905092915050565b60007f01ffc9a7000000000000000000000000000000000000000000000000000000007bffffffffffffffffffffffffffffffffffffffffffffffffffffffff1916827bffffffffffffffffffffffffffffffffffffffffffffffffffffffff1916149050919050565b60008073ffffffffffffffffffffffffffffffffffffffff166002600084815260200190815260200160002060009054906101000a900473ffffffffffffffffffffffffffffffffffffffff1673ffffffffffffffffffffffffffffffffffffffff1614159050919050565b600033905090565b816004600083815260200190815260200160002060006101000a81548173ffffffffffffffffffffffffffffffffffffffff021916908373ffffffffffffffffffffffffffffffffffffffff160217905550808273ffffffffffffffffffffffffffffffffffffffff16610db48361071b565b73ffffffffffffffffffffffffffffffffffffffff167f8c5be1e5ebec7d5bd14f71427d1e84f3dd0314c0f7b2291e5b200ac8c7c3b92560405160405180910390a45050565b6000610e0582610ccd565b610e44576040517f08c379a0000000000000000000000000000000000000000000000000000000008152600401610e3b90611fce565b60405180910390fd5b6000610e4f8361071b565b90508073ffffffffffffffffffffffffffffffffffffffff168473ffffffffffffffffffffffffffffffffffffffff161480610ebe57508373ffffffffffffffffffffffffffffffffffffffff16610ea6846104a2565b73ffffffffffffffffffffffffffffffffffffffff16145b80610ecf5750610ece8185610bcf565b5b91505092915050565b8273ffffffffffffffffffffffffffffffffffffffff16610ef88261071b565b73ffffffffffffffffffffffffffffffffffffffff1614610f4e576040517f08c379a0000000000000000000000000000000000000000000000000000000008152600401610f459061208e565b60405180910390fd5b600073ffffffffffffffffffffffffffffffffffffffff168273ffffffffffffffffffffffffffffffffffffffff161415610fbe576040517f08c379a0000000000000000000000000000000000000000000000000000000008152600401610fb590611f8e565b60405180910390fd5b610fc983838361160b565b610fd4600082610d41565b6001600360008573ffffffffffffffffffffffffffffffffffffffff1673ffffffffffffffffffffffffffffffffffffffff1681526020019081526020016000206000828254611024919061229a565b925050819055506001600360008473ffffffffffffffffffffffffffffffffffffffff1673ffffffffffffffffffffffffffffffffffffffff168152602001908152602001600020600082825461107b9190612213565b92505081905550816002600083815260200190815260200160002060006101000a81548173ffffffffffffffffffffffffffffffffffffffff021916908373ffffffffffffffffffffffffffffffffffffffff160217905550808273ffffffffffffffffffffffffffffffffffffffff168473ffffffffffffffffffffffffffffffffffffffff167fddf252ad1be2c89b69c2b068fc378daa952ba7f163c4a11628f55a4df523b3ef60405160405180910390a4505050565b600061113f8261071b565b905061114d8160008461160b565b611158600083610d41565b6001600360008373ffffffffffffffffffffffffffffffffffffffff1673ffffffffffffffffffffffffffffffffffffffff16815260200190815260200160002060008282546111a8919061229a565b925050819055506002600083815260200190815260200160002060006101000a81549073ffffffffffffffffffffffffffffffffffffffff021916905581600073ffffffffffffffffffffffffffffffffffffffff168273ffffffffffffffffffffffffffffffffffffffff167fddf252ad1be2c89b69c2b068fc378daa952ba7f163c4a11628f55a4df523b3ef60405160405180910390a45050565b611250848484610ed8565b61125c84848484611610565b61129b576040517f08c379a000000000000000000000000000000000000000000000000000000000815260040161129290611f4e565b60405180910390fd5b50505050565b606060405180602001604052806000815250905090565b60606000821415611300576040518060400160405280600181526020017f30000000000000000000000000000000000000000000000000000000000000008152509050611414565b600082905060005b6000821461133257808061131b906123e7565b915050600a8261132b9190612269565b9150611308565b60008167ffffffffffffffff81111561134e5761134d61251d565b5b6040519080825280601f01601f1916602001820160405280156113805781602001600182028036833780820191505090505b5090505b6000851461140d57600182611399919061229a565b9150600a856113a89190612430565b60306113b49190612213565b60f81b8183815181106113ca576113c96124ee565b5b60200101907effffffffffffffffffffffffffffffffffffffffffffffffffffffffffffff1916908160001a905350600a856114069190612269565b9450611384565b8093505050505b919050565b6001816000016000828254019250508190555050565b600081600001549050919050565b600073ffffffffffffffffffffffffffffffffffffffff168273ffffffffffffffffffffffffffffffffffffffff1614156114ad576040517f08c379a00000000000000000000000000000000000000000000000000000000081526004016114a49061204e565b60405180910390fd5b6114b681610ccd565b156114f6576040517f08c379a00000000000000000000000000000000000000000000000000000000081526004016114ed90611f6e565b60405180910390fd5b6115026000838361160b565b6001600360008473ffffffffffffffffffffffffffffffffffffffff1673ffffffffffffffffffffffffffffffffffffffff16815260200190815260200160002060008282546115529190612213565b92505081905550816002600083815260200190815260200160002060006101000a81548173ffffffffffffffffffffffffffffffffffffffff021916908373ffffffffffffffffffffffffffffffffffffffff160217905550808273ffffffffffffffffffffffffffffffffffffffff16600073ffffffffffffffffffffffffffffffffffffffff167fddf252ad1be2c89b69c2b068fc378daa952ba7f163c4a11628f55a4df523b3ef60405160405180910390a45050565b505050565b60006116318473ffffffffffffffffffffffffffffffffffffffff166117a7565b1561179a578373ffffffffffffffffffffffffffffffffffffffff1663150b7a0261165a610d39565b8786866040518563ffffffff1660e01b815260040161167c9493929190611ec5565b602060405180830381600087803b15801561169657600080fd5b505af19250505080156116c757506040513d601f19601f820116820180604052508101906116c49190611b4f565b60015b61174a573d80600081146116f7576040519150601f19603f3d011682016040523d82523d6000602084013e6116fc565b606091505b50600081511415611742576040517f08c379a000000000000000000000000000000000000000000000000000000000815260040161173990611f4e565b60405180910390fd5b805181602001fd5b63150b7a0260e01b7bffffffffffffffffffffffffffffffffffffffffffffffffffffffff1916817bffffffffffffffffffffffffffffffffffffffffffffffffffffffff19161491505061179f565b600190505b949350505050565b600080823b905060008111915050919050565b60006117cd6117c88461216e565b612149565b9050828152602081018484840111156117e9576117e8612551565b5b6117f4848285612342565b509392505050565b600061180f61180a8461219f565b612149565b90508281526020810184848401111561182b5761182a612551565b5b611836848285612342565b509392505050565b60008135905061184d816129a0565b92915050565b600081359050611862816129b7565b92915050565b600081359050611877816129ce565b92915050565b60008151905061188c816129ce565b92915050565b600082601f8301126118a7576118a661254c565b5b81356118b78482602086016117ba565b91505092915050565b600082601f8301126118d5576118d461254c565b5b81356118e58482602086016117fc565b91505092915050565b6000813590506118fd816129e5565b92915050565b6000602082840312156119195761191861255b565b5b60006119278482850161183e565b91505092915050565b600080604083850312156119475761194661255b565b5b60006119558582860161183e565b92505060206119668582860161183e565b9150509250929050565b6000806000606084860312156119895761198861255b565b5b60006119978682870161183e565b93505060206119a88682870161183e565b92505060406119b9868287016118ee565b9150509250925092565b600080600080608085870312156119dd576119dc61255b565b5b60006119eb8782880161183e565b94505060206119fc8782880161183e565b9350506040611a0d878288016118ee565b925050606085013567ffffffffffffffff811115611a2e57611a2d612556565b5b611a3a87828801611892565b91505092959194509250565b60008060408385031215611a5d57611a5c61255b565b5b6000611a6b8582860161183e565b9250506020611a7c85828601611853565b9150509250929050565b60008060408385031215611a9d57611a9c61255b565b5b6000611aab8582860161183e565b925050602083013567ffffffffffffffff811115611acc57611acb612556565b5b611ad8858286016118c0565b9150509250929050565b60008060408385031215611af957611af861255b565b5b6000611b078582860161183e565b9250506020611b18858286016118ee565b9150509250929050565b600060208284031215611b3857611b3761255b565b5b6000611b4684828501611868565b91505092915050565b600060208284031215611b6557611b6461255b565b5b6000611b738482850161187d565b91505092915050565b600060208284031215611b9257611b9161255b565b5b6000611ba0848285016118ee565b91505092915050565b611bb2816122ce565b82525050565b611bc1816122e0565b82525050565b6000611bd2826121d0565b611bdc81856121e6565b9350611bec818560208601612351565b611bf581612560565b840191505092915050565b6000611c0b826121db565b611c1581856121f7565b9350611c25818560208601612351565b611c2e81612560565b840191505092915050565b6000611c44826121db565b611c4e8185612208565b9350611c5e818560208601612351565b80840191505092915050565b6000611c776032836121f7565b9150611c8282612571565b604082019050919050565b6000611c9a601c836121f7565b9150611ca5826125c0565b602082019050919050565b6000611cbd6024836121f7565b9150611cc8826125e9565b604082019050919050565b6000611ce06019836121f7565b9150611ceb82612638565b602082019050919050565b6000611d03602c836121f7565b9150611d0e82612661565b604082019050919050565b6000611d266038836121f7565b9150611d31826126b0565b604082019050919050565b6000611d49602a836121f7565b9150611d54826126ff565b604082019050919050565b6000611d6c6029836121f7565b9150611d778261274e565b604082019050919050565b6000611d8f6020836121f7565b9150611d9a8261279d565b602082019050919050565b6000611db2602c836121f7565b9150611dbd826127c6565b604082019050919050565b6000611dd56029836121f7565b9150611de082612815565b604082019050919050565b6000611df8602f836121f7565b9150611e0382612864565b604082019050919050565b6000611e1b6021836121f7565b9150611e26826128b3565b604082019050919050565b6000611e3e6031836121f7565b9150611e4982612902565b604082019050919050565b6000611e616030836121f7565b9150611e6c82612951565b604082019050919050565b611e8081612338565b82525050565b6000611e928285611c39565b9150611e9e8284611c39565b91508190509392505050565b6000602082019050611ebf6000830184611ba9565b92915050565b6000608082019050611eda6000830187611ba9565b611ee76020830186611ba9565b611ef46040830185611e77565b8181036060830152611f068184611bc7565b905095945050505050565b6000602082019050611f266000830184611bb8565b92915050565b60006020820190508181036000830152611f468184611c00565b905092915050565b60006020820190508181036000830152611f6781611c6a565b9050919050565b60006020820190508181036000830152611f8781611c8d565b9050919050565b60006020820190508181036000830152611fa781611cb0565b9050919050565b60006020820190508181036000830152611fc781611cd3565b9050919050565b60006020820190508181036000830152611fe781611cf6565b9050919050565b6000602082019050818103600083015261200781611d19565b9050919050565b6000602082019050818103600083015261202781611d3c565b9050919050565b6000602082019050818103600083015261204781611d5f565b9050919050565b6000602082019050818103600083015261206781611d82565b9050919050565b6000602082019050818103600083015261208781611da5565b9050919050565b600060208201905081810360008301526120a781611dc8565b9050919050565b600060208201905081810360008301526120c781611deb565b9050919050565b600060208201905081810360008301526120e781611e0e565b9050919050565b6000602082019050818103600083015261210781611e31565b9050919050565b6000602082019050818103600083015261212781611e54565b9050919050565b60006020820190506121436000830184611e77565b92915050565b6000612153612164565b905061215f82826123b6565b919050565b6000604051905090565b600067ffffffffffffffff8211156121895761218861251d565b5b61219282612560565b9050602081019050919050565b600067ffffffffffffffff8211156121ba576121b961251d565b5b6121c382612560565b9050602081019050919050565b600081519050919050565b600081519050919050565b600082825260208201905092915050565b600082825260208201905092915050565b600081905092915050565b600061221e82612338565b915061222983612338565b9250827fffffffffffffffffffffffffffffffffffffffffffffffffffffffffffffffff0382111561225e5761225d612461565b5b828201905092915050565b600061227482612338565b915061227f83612338565b92508261228f5761228e612490565b5b828204905092915050565b60006122a582612338565b91506122b083612338565b9250828210156122c3576122c2612461565b5b828203905092915050565b60006122d982612318565b9050919050565b60008115159050919050565b60007fffffffff0000000000000000000000000000000000000000000000000000000082169050919050565b600073ffffffffffffffffffffffffffffffffffffffff82169050919050565b6000819050919050565b82818337600083830152505050565b60005b8381101561236f578082015181840152602081019050612354565b8381111561237e576000848401525b50505050565b6000600282049050600182168061239c57607f821691505b602082108114156123b0576123af6124bf565b5b50919050565b6123bf82612560565b810181811067ffffffffffffffff821117156123de576123dd61251d565b5b80604052505050565b60006123f282612338565b91507fffffffffffffffffffffffffffffffffffffffffffffffffffffffffffffffff82141561242557612424612461565b5b600182019050919050565b600061243b82612338565b915061244683612338565b92508261245657612455612490565b5b828206905092915050565b7f4e487b7100000000000000000000000000000000000000000000000000000000600052601160045260246000fd5b7f4e487b7100000000000000000000000000000000000000000000000000000000600052601260045260246000fd5b7f4e487b7100000000000000000000000000000000000000000000000000000000600052602260045260246000fd5b7f4e487b7100000000000000000000000000000000000000000000000000000000600052603260045260246000fd5b7f4e487b7100000000000000000000000000000000000000000000000000000000600052604160045260246000fd5b600080fd5b600080fd5b600080fd5b600080fd5b6000601f19601f8301169050919050565b7f4552433732313a207472616e7366657220746f206e6f6e20455243373231526560008201527f63656976657220696d706c656d656e7465720000000000000000000000000000602082015250565b7f4552433732313a20746f6b656e20616c7265616479206d696e74656400000000600082015250565b7f4552433732313a207472616e7366657220746f20746865207a65726f2061646460008201527f7265737300000000000000000000000000000000000000000000000000000000602082015250565b7f4552433732313a20617070726f766520746f2063616c6c657200000000000000600082015250565b7f4552433732313a206f70657261746f7220717565727920666f72206e6f6e657860008201527f697374656e7420746f6b656e0000000000000000000000000000000000000000602082015250565b7f4552433732313a20617070726f76652063616c6c6572206973206e6f74206f7760008201527f6e6572206e6f7220617070726f76656420666f7220616c6c0000000000000000602082015250565b7f4552433732313a2062616c616e636520717565727920666f7220746865207a6560008201527f726f206164647265737300000000000000000000000000000000000000000000602082015250565b7f4552433732313a206f776e657220717565727920666f72206e6f6e657869737460008201527f656e7420746f6b656e0000000000000000000000000000000000000000000000602082015250565b7f4552433732313a206d696e7420746f20746865207a65726f2061646472657373600082015250565b7f4552433732313a20617070726f76656420717565727920666f72206e6f6e657860008201527f697374656e7420746f6b656e0000000000000000000000000000000000000000602082015250565b7f4552433732313a207472616e73666572206f6620746f6b656e2074686174206960008201527f73206e6f74206f776e0000000000000000000000000000000000000000000000602082015250565b7f4552433732314d657461646174613a2055524920717565727920666f72206e6f60008201527f6e6578697374656e7420746f6b656e0000000000000000000000000000000000602082015250565b7f4552433732313a20617070726f76616c20746f2063757272656e74206f776e6560008201527f7200000000000000000000000000000000000000000000000000000000000000602082015250565b7f4552433732313a207472616e736665722063616c6c6572206973206e6f74206f60008201527f776e6572206e6f7220617070726f766564000000000000000000000000000000602082015250565b7f4552433732314275726e61626c653a2063616c6c6572206973206e6f74206f7760008201527f6e6572206e6f7220617070726f76656400000000000000000000000000000000602082015250565b6129a9816122ce565b81146129b457600080fd5b50565b6129c0816122e0565b81146129cb57600080fd5b50565b6129d7816122ec565b81146129e257600080fd5b50565b6129ee81612338565b81146129f957600080fd5b5056fea26469706673582212209feeba8f257815d8e7ff761c10871019e241003a8b8ad3a5bb0e0b878c3a1e0764736f6c63430008060033",
  "immutableReferences": {},
  "source": "pragma solidity ^0.8.0;\n\nimport \"@openzeppelin/contracts/token/ERC721/extensions/ERC721Burnable.sol\";\nimport \"@openzeppelin/contracts/utils/Counters.sol\";\n\ncontract GameItem is ERC721Burnable {\n    using Counters for Counters.Counter;\n    Counters.Counter private _tokenIds;\n\n    constructor() ERC721(\"GameItem\", \"ITM\") {}\n\n    function awardItem(address player, string memory tokenURI)\n        public\n        returns (uint256)\n    {\n        _tokenIds.increment();\n\n        uint256 newItemId = _tokenIds.current();\n        _mint(player, newItemId);\n\n        return newItemId;\n    }\n}\n",
  "sourcePath": "/Users/seanroades/Desktop/projects/fantasy-islands-v3/starter_kit/src/contracts/Islands.sol",
  "compiler": {
    "name": "solc",
    "version": "0.8.6+commit.11564f7e.Emscripten.clang"
  },
  "schemaVersion": "3.4.0",
  "updatedAt": "2021-08-02T19:38:20.557Z",
  "devdoc": {
    "kind": "dev",
    "methods": {
      "approve(address,uint256)": {
        "details": "See {IERC721-approve}."
      },
      "balanceOf(address)": {
        "details": "See {IERC721-balanceOf}."
      },
      "burn(uint256)": {
        "details": "Burns `tokenId`. See {ERC721-_burn}. Requirements: - The caller must own `tokenId` or be an approved operator."
      },
      "getApproved(uint256)": {
        "details": "See {IERC721-getApproved}."
      },
      "isApprovedForAll(address,address)": {
        "details": "See {IERC721-isApprovedForAll}."
      },
      "name()": {
        "details": "See {IERC721Metadata-name}."
      },
      "ownerOf(uint256)": {
        "details": "See {IERC721-ownerOf}."
      },
      "safeTransferFrom(address,address,uint256)": {
        "details": "See {IERC721-safeTransferFrom}."
      },
      "safeTransferFrom(address,address,uint256,bytes)": {
        "details": "See {IERC721-safeTransferFrom}."
      },
      "setApprovalForAll(address,bool)": {
        "details": "See {IERC721-setApprovalForAll}."
      },
      "supportsInterface(bytes4)": {
        "details": "See {IERC165-supportsInterface}."
      },
      "symbol()": {
        "details": "See {IERC721Metadata-symbol}."
      },
      "tokenURI(uint256)": {
        "details": "See {IERC721Metadata-tokenURI}."
      },
      "transferFrom(address,address,uint256)": {
        "details": "See {IERC721-transferFrom}."
      }
    },
    "version": 1
  },
  "userdoc": {
    "kind": "user",
    "methods": {},
    "version": 1
  }
}